:020000000A28CC
:10000800FE00030EF1000A08F20041290B28F9014D
:10001800FA0183120313BE01BF01C0018301142832
:10002800831603138612831203138612831603138F
:100038000613831203130613831603130510831282
:10004800031305108316031306148E1581018312FA
:1000580003138C01831603138C01811281118B16F3
:100068008312031381018316031301178B170B17D0
:100078000B16003083120313AB003D30AA00093081
:10008800A9000030A8000230AC000030AD00F32019
:10009800831203132908C2002808C1004008031965
:1000A800562857285228C0013F08BD003E08BC000A
:1000B800BE01BF013C083D04031D6328642866286F
:1000C800861273280310861E031403186C287028E0
:1000D80083120313861673288312031386123D08AE
:1000E800803AFF0080307F02031D7C2817303C02D5
:1000F80003187F2880288528831203130514061304
:100108005228831203130510061752280A280030B4
:10011800F7000030F6000030F5000030F4008312DC
:100128000313230822042104200403199C289D2872
:10013800EA28F801F80AAD280130F3000310A00DF1
:10014800A10DA20DA30DF30BA2280130FF007F081B
:10015800F807A31FB028B128A0280130F300031026
:10016800F40DF50DF60DF70DF30BB3282308270250
:10017800031DC82822082602031DC82821082502B5
:10018800031DC82820082402031CCB28CC28DB2800
:100198002008A4022108031C210FA5022208031C21
:1001A800220FA6022308031C230FA7027414013090
:1001B8000310A30CA20CA10CA00CFF3E031DDC280D
:1001C8000130F802031DE928EA28B1287708A300BE
:1001D8007608A2007508A1007408A0000800831220
:1001E80003132808AE002908AF002A08B0002B081E
:1001F800B10002300310B10CB00CAF0CAE0CFF3ED6
:10020800031DFE283108B5003008B4002F08B300DC
:100218002E08B2002C08A0002D08A100A201A301FD
:100228003508A7003408A6003308A5003208A40042
:100238008B20831203132308B9002208B800210871
:10024800B7002008B6003608AE003708AF003808F7
:10025800B0003908B10008300310B10CB00CAF0C75
:10026800AE0CFF3E031D30292F08BB002E08BA0034
:100278003B08A9003A08A80008008B1C4429452916
:100288004E298B10013083120313BE070318BF0ACF
:100298000030BF070B1D512952296F290B1101305E
:1002A800F9070318FA0A0030FA077A08803AF000CA
:1002B800831203134208803A7002031D652941081E
:1002C8007902031C682969296F29F901FA010130AB
:1002D80083120313C00072088A00710E8300FE0E99
:0402E8007E0E09007D
:08400000FF3FFF3FFF3FFF3FC0
:02400E000A1F87
:00000001FF
