:040000008A110F282A
:10000800FE00030EF0000408F1000A08F2007F0861
:10001800F3008A15882E8A111128F601F701F801D4
:10002800F9018313A0308400DB308A15D2248A11A9
:100038008317203084002A308A15D22483018A113C
:10004800462E31088039BB003108B6003607BD009E
:10005800B01B3D143D0803193E283D0A031D3C28EA
:100068000030B1000030B0000030AF000030AE000A
:10007800B01746280030B1000030B0000030AF00A3
:100088000030AE0035088039FF007F08BB06350810
:10009800B6003607BC00B41B3C143C0803196128A1
:1000A8003C0A031D5F280030B5000030B400003062
:1000B800B3000030B200B41769280030B500003032
:1000C800B4000030B3000030B2003C08031D3D0806
:1000D800031D77280030B1000030B0000030AF00B9
:1000E8000030AE0008002E08F40034088A158A256E
:1000F8008A117508C7007408C6004608B600B7011B
:10010800B801B9013908C1003808C0003708BF0074
:100118003608BE004708B600B701B801B90139086A
:10012800C5003808C4003708C3003608C2002F08C5
:10013800F40033088A158A258A117508C7007408DF
:10014800C6004608B600B701B801B9013608BE07AF
:10015800370803110318013E031DBF0738080311B0
:100168000318013E031DC007390803110318013E97
:10017800031DC1074708B600B701B801B901360821
:10018800C207370803110318013E031DC3073808C7
:1001980003110318013E031DC4073908031103188E
:1001A800013E031DC5073008F40032088A158A2568
:1001B8008A117508C7007408C6004608B600B7015A
:1001C800B801B9013608BE07370803110318013E04
:1001D800031DBF07380803110318013E031DC0079C
:1001E800390803110318013E031DC1074708B6006B
:1001F800B701B801B9013608C20737080311031857
:10020800013E031DC307380803110318013E031DEF
:10021800C407390803110318013E031DC507083038
:10022800B6000310BE0DBF0DC00DC10DB60B1529CC
:100238002F08F40032088A158A258A117508C70024
:100248007408C6004608B6004708B700B801B901E7
:100258003608BE07370803110318013E031DBF0700
:10026800380803110318013E031DC007390803119C
:100278000318013E031DC1072E08F40033088A1530
:100288008A258A117508C7007408C6004608B60092
:100298004708B700B801B9013608BE073708031187
:1002A8000318013E031DBF07380803110318013E58
:1002B800031DC007390803110318013E031DC107B8
:1002C8000830B6000310BE0DBF0DC00DC10DB60B32
:1002D80066292E08F40032088A158A258A117508BD
:1002E800C7007408C6004608B6004708B700B8013A
:1002F800B9013608BE07370803110318013E031D6C
:10030800BF07380803110318013E031DC007390849
:1003180003110318013E031DC1072F08F400340818
:100328008A158A258A117508C7007408C600460808
:10033800B6004708B700B801B9013608C207370840
:1003480003110318013E031DC307380803110318DE
:10035800013E031DC407390803110318013E031D9C
:10036800C5073008F40033088A158A258A117508EC
:10037800C7007408C6004608B6004708B700B801A9
:10038800B9013608C207370803110318013E031DD7
:10039800C307380803110318013E031DC4073908B1
:1003A80003110318013E031DC5073008F400340883
:1003B8008A158A258A117508C7007408C600460878
:1003C800B6004708B700B801B90108300310B60DE8
:1003D800B70DB80DB90DFF3E031DEA293608C2074F
:1003E800370803110318013E031DC307380803111A
:1003F8000318013E031DC407390803110318013E01
:10040800031DC5074108B600B701B801B901360890
:10041800C207370803110318013E031DC307380834
:1004280003110318013E031DC407390803110318FB
:10043800013E031DC5070830B6000310BE0DBF0DF1
:10044800C00DC10DB60B212A3D083C07B600B70107
:10045800B70D3608823EC60037080318013EFF3E36
:10046800C700C41B522A0130B6000310C20DC30DC9
:10047800C40DC50DB60B392AC11B42140130B60094
:100488000310BE0DBF0DC00DC10DB60B442AFF30C1
:10049800C6070318C70AFF30C707352ABC01C11FA2
:1004A8006B2AFF303E05B600FF303F05B700FF302E
:1004B8004005B8007F304105B900390838043704D1
:1004C800360403194218692A6B2ABC01BC0A3C0885
:1004D80003199D2A0130C207003003180130C307F1
:1004E800003003180130C407003003180130C50775
:1004F800451C9D2A4208B6004308B7004408B800C6
:100508004508B9000130BA00390DB90CB80CB70C60
:10051800B60CBA0B882A3908C5003808C400370851
:10052800C3003608C2000130C6070318C70A0030E6
:10053800C7074708803AFF0080307F02031DA62ABC
:10054800FF304602031CB32A7F3083120313C50011
:100558008030C4000030C3000030C200DF2A83129C
:1005680003134708803AFF0080307F02031DBE2A2C
:10057800013046020318CC2A003083120313C50049
:100588000030C4000030C3000030C200BB01DF2AC5
:10059800831203134608BD00FF30C205FF30C305B0
:1005A8007F30C4050030C5053D18C4173D08B600A6
:1005B8000310360CC5003B08FF007F08C50445083A
:1005C800B1004408B0004308AF004208AE0008007C
:1005D8008316E3016308D13E840063088A15FE246C
:1005E8008A1183138000823083160313DC00DD3008
:1005F800DB00DB0BFD2ADC0BFD2A00000130FF00CD
:100608007F0883160313E3070A306302031CEE2AEC
:100618005108D0005808CD005908F9005A08F800C8
:100628005208CF005308CE005508DB00DC015408FF
:10063800DD00DE015D08DE00DD015B085D04C6004B
:100648005C085E04C7005708DB00DC015608DD00C3
:10065800DE015D08DE00DD015B085D04C4005C08A6
:100668005E04C50041308312CB002030CA00003040
:10067800C9000030C80083164F08DB00DC01DD012B
:10068800DE015E088312A30083165D088312A200B0
:1006980083165C088312A10083165B088312A000EE
:1006A80000308A155F278A112308CF002208CE0060
:1006B8002108CD002008CC008A11AF248A114B08EC
:1006C8008316A70083124A088316A60083124908D6
:1006D8008316A500831248088316A40041308312AC
:1006E800CB002030CA000030C9000030C800831693
:1006F8004E08DB00DC01DD01DE015E088312A30089
:1007080083165D088312A20083165C088312A10079
:1007180083165B088312A00000308A155F278A11B0
:100728002308CF002208CE002108CD002008CC00E5
:100738008A11AF248A114B088316A30083124A0832
:100748008316A200831249088316A1008312480861
:100758008316A0005008053ECC004D03031DB92B9D
:100768000310440DC200450DD02B02304D06031D69
:10077800C52B44084607C20045080318450A470721
:10078800D02B5030DB001030DC0044085B02C20084
:100798004508031C450A5C02C30044308312CB00A1
:1007A8007A30CA000030C9000030C80083164608F5
:1007B8008312A000831647088312A100A201A30197
:1007C80000308A155F278A112308CF002208CE003F
:1007D8002108CD002008CC008A11AF248A114B08CB
:1007E8008316E20083124A088316E100831249083F
:1007F8008316E000831248088316DF00620883121C
:10080800EF00831661088312EE00831660088312D6
:10081800ED0083165F088312EC008A15D8258A112B
:100828006D088316B50083126C088316B400443033
:100838008312CB007A30CA000030C9000030C800EB
:10084800831644088312A000831645088312A1006A
:10085800A201A30100308A155F278A112308CF005F
:100868002208CE002108CD002008CC008A11AF2430
:100878008A114B088316E20083124A088316E100A6
:10088800831249088316E000831248088316DF00A4
:1008980062088312EF00831661088312EE00831644
:1008A80060088312ED0083165F088312EC008A1536
:1008B800D8258A116D088316B90083126C0883162F
:1008C800B80044308312CB007A30CA000030C90027
:1008D8000030C800831642088312A000831643081C
:1008E8008312A100A201A30100308A155F278A1193
:1008F8002308CF002208CE002108CD002008CC0014
:100908008A11AF248A114B088316E20083124A0821
:100918008316E100831249088316E0008312480811
:100928008316DF0062088312EF00831661088312C2
:10093800EE00831660088312ED0083165F088312A9
:10094800EC008A15D8256D088316B70083126C0849
:100958008316B60008004F088039D9004F08D00028
:100968005007E000CE1B601460080319C92C600A08
:10097800031DC62C0030CF000030CE000030CD0063
:100988000030CC00CE17CF01D12C0030CF00003082
:10099800CE000030CD000030CC004B088039FF007D
:1009A8007F08D9064B08D0005007E100CA1B611424
:1009B80061080319ED2C610A031DEA2C0030CB00F5
:1009C8000030CA000030C9000030C800CA17CB0187
:1009D800F52C0030CB000030CA000030C9000030D0
:1009E800C8004B084A0449044804031D142D00306C
:1009F800CF000030CE000030CD000030CC00803079
:100A0800CE047F30CF045908FF007F08CF044F0879
:100A1800CB004E08CA004D08C9004C08C8000800A1
:100A28006008031D202D0030CB000030CA000030C4
:100A3800C9000030C80008006008D000D101510882
:100A4800D30061085002D200031CD30352087F3E32
:100A5800DA0053080318013E003EDB004F08D800B7
:100A68004E08D7004D08D6004C08D5000030CF00FE
:100A78000030CE000030CD000030CC000030DF0068
:100A88000030DE000030DD000030DC00E1011A300B
:100A980061020318932D610803196F2D0130D000EE
:100AA8000310D50DD60DD70DD80DD00B542D013010
:100AB800D0000310CC0DCD0DCE0DCF0DD00B5D2D7C
:100AC800DF1B4C140130D0000310DC0DDD0DDE0DF2
:100AD800DF0DD00B682D4B085802031D7D2D4A08E9
:100AE8005702031D7D2D49085602031D7D2D480818
:100AF8005502031C8E2D5F174808D5024908031CB0
:100B0800490FD6024A08031C4A0FD7024B08031C98
:100B18004B0FD8020130FF007F08E1074B2D580822
:100B2800570456045504031D5C14CE1BB62D013022
:100B3800D0000310CC0DCD0DCE0DCF0DD00B9D2DBB
:100B4800DF1B4C140130D0000310DC0DDD0DDE0D71
:100B5800DF0DD00BA82DFF30DA070318DB0AFF30B2
:100B6800DB07992DE101DF1FCF2DFF305C05D00099
:100B7800FF305D05D100FF305E05D2007F305F0594
:100B8800D300530852045104500403194C18CD2DB6
:100B9800CF2DE101E10A61080319012E0130CC07CC
:100BA800003003180130CD07003003180130CE079C
:100BB800003003180130CF074F1C012E4C08D0001D
:100BC8004D08D1004E08D2004F08D3000130D400A0
:100BD800530DD30CD20CD10CD00CD40BEC2D5308E4
:100BE800CF005208CE005108CD005008CC0001308B
:100BF800DA070318DB0A0030DB075B08803AFF00DE
:100C080080307F02031D0A2EFF305A02031C1A2E61
:100C1800FF3083120313DA000030DB000030CF000E
:100C28000030CE000030CD000030CC00831203131A
:100C38005B08803AFF0080307F02031D252E0130BB
:100C48005A020318342E83120313DA01DB01003031
:100C5800CF000030CE000030CD000030CC00D901EC
:100C6800831203135A08E000601C3C2ECE17402E56
:100C78007F30FF007F08CE056008D0000310500CBD
:100C8800CF00072D0D3083160313E500FB30E40079
:100C9800E40B4C2EE50B4C2E000083160313870142
:100CA8009101033083120317870087019C01831683
:100CB80003130614051183120511831606118312F6
:100CC8000611831686118312861183160612831263
:100CD80006128A11EC228A118A15EE268A118316C9
:100CE800031381170113FE3095008F308F058101A2
:100CF80083128C0183168C01811281118B16831249
:100D08008101F830831681058A15C4248A118A1551
:100D1800DA248A118A1512258A110B168B170B17DC
:100D280083164903031DA32EC9010230F4000030C5
:100D3800F5008A1548268A118A15AD258A11831669
:100D48004A03031DC22ECA018A1568258A118A1111
:100D5800EC228A118A1548258A11003A031DB82EFB
:100D68008A150D268A11B42E0530F4000030F500DE
:100D78008A1548268A118A15AD258A1183164B08CB
:100D88000319942ECB018B132D08AB002C08AA0055
:100D9800AC01AD018B1723088312CB008316220800
:100DA8008312CA00831621088312C90083162008FB
:100DB8008312C800831627088312B10083162608F9
:100DC8008312B000831625088312AF008316240807
:100DD8008312AE0083162A088312A00083162B08FC
:100DE8008312A1000030A11BFF30A200A300013034
:100DF8008A155F278A112308B5002208B400210844
:100E0800B3002008B2008A1125208A113108CF00CA
:100E18003008CE002F08CD002E08CC008A11AF2450
:100E28008A114B088316ED0083124A088316EC00DA
:100E3800831249088316EB00831248088316EA00D8
:100E480040308312B1006630B0006630AF006630C3
:100E5800AE0083166D088312B50083166C088312E2
:100E6800B40083166B088312B30083166A088312D2
:100E7800B2008A1125208A1131088316E9008312ED
:100E880030088316E80083122F088316E7008312C0
:100E98002E088316E60069088312E50083166808A1
:100EA8008312E400831667088312E300831666083A
:100EB8008312E2008A1196278A1163088316A90013
:100EC800831262088316A8002B08803AFF0080303E
:100ED8007F02031D712F03302A02031C7E2F03108B
:100EE80083120313061E031403187E2F83120313A1
:100EF8000612812F83120313061683162B08803AD5
:100F0800803C031D892F2A0850020318912F831251
:100F18000313051506128615942E83120313051163
:100F28008611942E0310640D650DEB006B08031DEC
:100F3800A62F0030E5000030E4000030E300003068
:100F4800E20008006208E6006308E7006408E800B9
:100F58006508E9001F300310E90CE80CE70CE60C03
:100F6800FF3E031DAF2F6608EA00E417FF30E205D5
:100F7800FF30E305FF30E4050030E5059630EB026D
:100F8800EB1FDB2F6B08803A973E031C9D2F013027
:100F98000310E50CE40CE30CE20CFF3E031DCC2F20
:100FA8000130FF007F08EB070319EE2FCB2F20300D
:100FB8006B0203189D2F6B080319EE2F0130E60012
:100FC8000310E20DE30DE40DE50DE60BE42F01300F
:100FD800EB02DF2F6A0803190800E209E309E409B4
:100FE800E509E20A0319E30A0319E40A0319E50A01
:020FF8000800EF
:101988000514851483129F171F140800F40083168A
:10199800981CCB2C740883129900080064008001FD
:1019A800840A0406031900340406D32C831687110D
:1019B80007118710071083128715071407110800ED
:1019C800F500F401F40A75080319EE2C750A0319D9
:1019D800EE2CF401740808008312A001A00A740810
:1019E80075040319FC2C740A0319750A031DA00158
:1019F80020080800F400012D031364008316031760
:101A08008C18002D740883128D003F30FF007F086A
:101A180083168C050C1483120C08080019308316E1
:101A280099008312980183169801981318151812B3
:101A3800831298171816981283160C128C161813FE
:101A4800831218138316981298160800F500831647
:101A580003178C182B2D750883128D0074088C00C1
:101A68003F30FF007F0883168C0503108B1B03147F
:101A78008B130C1555308D00AA308D008C140C1169
:101A8800031C08008B17080020308312A000D130F7
:101A9800A1000A30A2000130A202220A0319662D11
:101AA800210884000130A10783130008F4002008EE
:101AB80084000130A00783170008740603194F2D0E
:101AC80000300800013008008312A2012208203EDD
:101AD800840083170008F40022088A152A258A152D
:101AE800823083120313A100DD30A000A00B7A2DF1
:101AF800A10B7A2D00000130FF007F088312031329
:101B0800A2070A302202031808006A2DA600A201C3
:101B1800A3017408A000A1012008A4002108A500C1
:101B2800261C9C2D2408A2070318A30A2508A3072E
:101B380001300310A40DA50DFF3E031D9D2D0310BC
:101B4800A60C2608031D942D2308F5002208F4008E
:101B580008002A308A15CA248A15C730F500B42D22
:101B6800F50BB32DB72DB82D83120313A001200850
:101B7800D13E8400831300088A15CA248A15C73009
:101B8800F500C62DF50BC52DC92DCA2D0130FF0056
:101B98007F0883120313A0070A302002031CBB2D01
:101BA80023308A15CA2408006F08CF006E08CE00BB
:101BB8006D08CD006C08CC004030CB00A030CA00C6
:101BC8000030C9000030C8008A11AF248A154B08BC
:101BD800B5004A08B4004908B3004808B2004530C7
:101BE800B1007F30B000F030AF000030AE008A1195
:101BF80025208A153108E5003008E4002F08E300A5
:101C08002E08E2008A1196276308ED006208EC00AE
:101C18000800831203130612F401F5017508803ACF
:101C2800FF0080307F02031D1B2E0A307402031848
:101C38000800831203138615033083120313A200CE
:101C48008A30A1005530A000A00B282EA10B282E09
:101C5800A20B282E0000831203138611033083126F
:101C68000313A2008A30A1005530A000A00B3A2E21
:101C7800A10B3A2EA20B3A2E00000130F4070318EC
:101C8800F50A0030F507122E83120616A301A401E7
:101C98002408803AFF0080307F02031D552E033050
:101CA80023020318842E831203138615033083122C
:101CB8000313A2008A30A1005530A000A00B622EA9
:101CC800A10B622EA20B622E000083120313861151
:101CD800033083120313A2008A30A1005530A000FC
:101CE800A00B742EA10B742EA20B742E00000130D1
:101CF80083120313A3070318A40A0030A4074C2E69
:101D080083120313061208008B1C932E8B100130CC
:101D180083160313AC070318AD0A0030AD070B1D7B
:101D2800AF2E0B11013083160313AE070318AF0A49
:101D38000030AF072F08803AFF0087307F02031D6D
:101D4800A72EA1302E02031CAF2E83160313AE015B
:101D5800AF010130CB00831203138C1EE32E981CB5
:101D6800B72E181218161A08F60040307606031D0A
:101D7800C12E8316C901C90AE12E2A307606031935
:101D8800C92E23307606031DD42E2A307606031971
:101D9800D02E8316CA01CA0A8316B201B301E12EF6
:101DA80083163208203E84007608831780000130AD
:101DB800B2070318B30A0030B30783128C127308F2
:101DC800FF0072088A0071088400700E8300FE0EFE
:101DD8007E0E090050088A15E4248A15003A031D6E
:101DE800352F831603134F088A15E4248A15003A01
:101DF800031D352F831603134E088A15E4248A150C
:101E0800003A031D352F831603134D088A15E42461
:101E18008A15003A031D352F79088A15E4248A1596
:101E2800003A031D352F78088A15E4248A15003AEC
:101E3800031D352F831603134708F5004608F400E1
:101E48008A15F0248A15003A031D352F8316450894
:101E5800F5004408F4008A15F0248A15003A03199D
:101E68003C2F8A150D26AA3083160313D0000800CC
:101E78000616063083120313A5001330A400AD30F4
:101E8800A300A30B452FA40B452FA50B452F00003E
:101E9800831203130612063083120313A5001330AE
:101EA800A400AD30A300A30B572FA40B572FA50BED
:101EB800572F00000800A8002808031DA31F742F2F
:101EC8002009AA002109AB002209AC002309AD00B2
:101ED800AA0A0319AB0A0319AC0A0319AD0A7C2F25
:101EE8002308AD002208AC002108AB002008AA0096
:101EF8002308220421042004031D8B2F0030A30093
:101F08000030A2000030A1000030A0000800963088
:101F1800A900FE302D050319BA2F0130FF007F08F4
:101F2800A90701300310AD0CAC0CAB0CAA0CFF3E9A
:101F3800031D962F8D2F0130FF007F08A907013060
:101F4800AA07003003180130AB070030031801302E
:101F5800AC07003003180130AD0701300310AD0C99
:101F6800AC0CAB0CAA0CFF3E031DB22FFF302D05A5
:101F78000319CE2F9F2F02302902031CD02F0130C6
:101F8800A9020130A4000310AA0DAB0DAC0DAD0DD4
:101F9800A40BC72FAC1FBF2F2918DA2FFF30AA05B3
:101FA800FF30AB057F30AC05FF30AD050310A90C41
:101FB8002908A400A501A601A70118300310A40D43
:101FC800A50DA60DA70DFF3E031DE22F2408AA04A8
:101FD8002508AB042608AC042708AD042808031D0F
:101FE800A31FF72FAD172D08A3002C08A2002B085C
:081FF800A1002A08A000080066
:08400000FF3FFF3FFF3FFF3FC0
:02400E00A23FCF
:10420000AA00160035000300210004004C00020043
:1042100007000400FF00FF00FF00FF00FF00FF0099
:00000001FF
