:040000008A110F282A
:10000800FE00030EF0000408F1000A08F2007F0861
:10001800F3008A15F12A8A111128F701F801F9016C
:1000280083120313EC01ED018313A0308400D03058
:100038008A1558208A1183172030840034308A1595
:10004800582083018A1128280D3083160313DE00F7
:10005800FB30DD00DD0B2E28DE0B2E28000083167A
:100068000313870191010330831203178700870167
:100078009C018316031306148610831286108316B8
:1000880006118312061183168611831286118316B0
:100098000612831206128A1532268A118A15BB2384
:1000A8008A118316031381170113FE3095008F30D0
:1000B8008F05810183128C0183168C0181128111B5
:1000C8008B1683128101F830831681058A15522018
:1000D8008A118A1569208A118A158C208A110B16B3
:1000E8008B170B1783164503031D8528C50102309E
:1000F800F4000030F5008A15C6218A118A159F215F
:100108008A1183164603031DA828C6018A151C21D7
:100118008A118A1532268A118A15FD208A11003A19
:10012800031D9E280A30F4000030F5008A15F621D8
:100138008A1196280530F4000030F5008A15C6218A
:100148008A118A159F218A118316470803199B294A
:10015800C7018B132D08AB002C08AA00AC01AD0118
:100168008B1723088312CB00831622088312CA0038
:10017800831621088312C900831620088312C80039
:10018800831627088312B100831626088312B0004D
:10019800831625088312AF00831624088312AE0045
:1001A80083162A088312A00083162B088312A10045
:1001B8000030A11BFF30A200A30001308A11B52630
:1001C8008A112308B5002208B4002108B3002008CA
:1001D800B2008A11EE238A113108CF003008CE0010
:1001E8002F08CD002E08CC008A159B248A114B08B5
:1001F8008316E40083124A088316E3008312490831
:100208008316E200831248088316E1004030831207
:10021800B1006630B0006630AF006630AE008316BD
:1002280064088312B500831663088312B40083162A
:1002380062088312B300831661088312B2008A1120
:10024800EE238A1131088316EE00831230088316D4
:10025800ED0083122F088316EC0083122E088316F4
:10026800EB006E088312E50083166D088312E40024
:1002780083166C088312E30083166B088312E2006E
:100288008A1554238A1163088316A9008312620809
:100298008316A8004908DD00DE01DF01E0016008DF
:1002A8008312A30083165F088312A20083165E08D8
:1002B8008312A10083165D088312A00001308A1101
:1002C800B5268A112308B1002208B0002108AF0022
:1002D8002008AE0083166E088312B50083166D08D9
:1002E8008312B40083166C088312B30083166B085C
:1002F8008312B2008A1156278A1103189729831688
:100308004808031D8A29831286148C2983128610B3
:100318000130FF007F088316C80702304802031C1B
:100328009829C801982986108A1524248A11003032
:100338008A153B218A1175088316EA007408E900BA
:100348006A088312E300831669088312E2008A159B
:1003580066228A1165088316E800831264088316EA
:10036800E700831263088316E60083126208831687
:10037800E5006808D3006708D2006608D100650860
:10038800D0008A1527228A115108BD005008BC00E8
:10039800C73083160313DD00D129DD0BD029D429FA
:1003A800000001308A153B218A1175088316EA007E
:1003B8007408E9006A088312E30083166908831247
:1003C800E2008A1566228A1165088316E8008312FE
:1003D80064088316E700831263088316E600831215
:1003E80062088316E5006808D3006708D20066082B
:1003F800D1006508D0008A1527228A115108BB0050
:100408005008BA006E088312B10083166D08831273
:10041800B00083166C088312AF0083166B08831232
:10042800AE0083164F08DD00DE01DF01E001600841
:100438008312A30083165F088312A20083165E0846
:100448008312A10083165D088312A00001308A116F
:10045800B5268A112308B5002208B4002108B30084
:100468002008B2008A1156278A110318242B061176
:10047800861183162B08803AFF0080307F02031D07
:10048800472A03302A02031C542A03108312031339
:10049800061E03140318542A831203130612572A3C
:1004A80083120313061683164408031D642A3D08A5
:1004B800B9003C08B8003B08B7003A08B600B72BAB
:1004C80035083D02031D6A2A34083C020318762ABF
:1004D8003D08B9003C08B8003B08B7003A08B60028
:1004E800C401EB2A6E088312B10083166D088312CB
:1004F800B00083166C088312AF0083166B08831252
:10050800AE0083164F08FD3E8312A000FF3003188B
:100518000030A100A201A11BA2032208A300013000
:100528008A11B5268A112308B5002208B4002108CB
:10053800B3002008B2008A1156278A110318E22A4C
:1005480083164B08DD00DE015D088312A0008316C8
:100558005E088312A1001530A2000030A3008A159E
:100568005B218A1183163408831220078316B8008A
:1005780035080318350A831221078316B9004B087A
:10058800DD00DE015D088312A00083165E08831279
:10059800A1001530A2000030A3008A155B218A1142
:1005A80083163208831220078316B600330803180F
:1005B800330A831221078316B700EB2A83163508FE
:1005C800B9003408B8003308B7003208B6006E081E
:1005D8008312B10083166D088312B00083166C086D
:1005E8008312AF0083166B088312AE0083164F0880
:1005F800FB3E8312A000FF3003180030A100A201C7
:10060800A11BA2032208A30001308A11B5268A1172
:100618002308B5002208B4002108B3002008B2005E
:100628008A1156278A110318B72B83163D08B9007B
:100638003C08B8003B08B7003A08B600C401B72B1D
:1006480006128615061583164F08033E8312A0006E
:10065800003003180130A100A201A11BA203220847
:10066800A30001308A11B5268A112308B100220897
:10067800B0002108AF002008AE0083166E08831270
:10068800B50083166D088312B40083166C088312B4
:10069800B30083166B088312B2008A1156278A1199
:1006A8000318A42B831635083D02031D5D2B34085F
:1006B8003C020318672B3D08B9003C08B8003B080A
:1006C800B7003A08B42B4A08DD00DE015D08831242
:1006D800A00083165E088312A100EB30A200FF3051
:1006E800A3008A155B218A11831634088312200718
:1006F8008316B80035080318350A831221078316B4
:10070800B9004A08DD00DE015D088312A0008316E7
:100718005E088312A100EB30A200FF30A3008A1507
:100728005B218A1183163208831220078316B600CC
:1007380033080318330A831221078316B700B52B31
:10074800831635083D02031DAB2B34083C02031CFD
:100758005F2B3508B9003408B8003308B7003208F1
:10076800B600C401C40A8A15A6228A1148304F0669
:10077800031DD62B3D088312A10083163C08831263
:10078800A00002308A15DE208A1183163B088312E6
:10079800A10083163A088312A00001308A15DE20D2
:1007A8008A11762839088312A10083163808831223
:1007B800A00002308A15DE208A11831637088312BA
:1007C800A100831636088312A00001308A15DE20A6
:1007D8008A11762831088039BB003108B6003607FF
:1007E800BD00B01B3D143D080319072C3D0A031D2D
:1007F800052C0030B1000030B0000030AF000030F0
:10080800AE00B0170F2C0030B1000030B00000303F
:10081800AF000030AE0035088039FF007F08BB0606
:100828003508B6003607BC00B41B3C143C08031955
:100838002A2C3C0A031D282C0030B5000030B400D7
:100848000030B3000030B200B417322C0030B500CD
:100858000030B4000030B3000030B2003C08031D83
:100868003D08031D402C0030B1000030B0000030BE
:10087800AF000030AE0008002E08F40034088A15D6
:100888007C218A117508C7007408C6004608B6009E
:10089800B701B801B9013908C1003808C0003708E4
:1008A800BF003608BE004708B600B701B801B90155
:1008B8003908C5003808C4003708C3003608C20024
:1008C8002F08F40033088A157C218A117508C7009F
:1008D8007408C6004608B600B701B801B901360861
:1008E800BE07370803110318013E031DBF07380868
:1008F80003110318013E031DC0073908031103182B
:10090800013E031DC1074708B600B701B801B90188
:100918003608C207370803110318013E031DC30731
:10092800380803110318013E031DC40739080311D1
:100938000318013E031DC5073008F40032088A1564
:100948007C218A117508C7007408C6004608B600DD
:10095800B701B801B9013608BE07370803110318F3
:10096800013E031DBF07380803110318013E031D8C
:10097800C007390803110318013E031DC1074708C2
:10098800B600B701B801B9013608C2073708031124
:100998000318013E031DC307380803110318013E5D
:1009A800031DC407390803110318013E031DC507B9
:1009B8000830B6000310BE0DBF0DC00DC10DB60B3B
:1009C800DE2C2F08F40032088A157C218A1175085C
:1009D800C7007408C6004608B6004708B700B80143
:1009E800B9013608BE07370803110318013E031D75
:1009F800BF07380803110318013E031DC007390853
:100A080003110318013E031DC1072E08F400330823
:100A18008A157C218A117508C7007408C600460823
:100A2800B6004708B700B801B9013608BE0737084D
:100A380003110318013E031DBF07380803110318EB
:100A4800013E031DC007390803110318013E031DA9
:100A5800C1070830B6000310BE0DBF0DC00DC10D93
:100A6800B60B2F2D2E08F40032088A157C218A1126
:100A78007508C7007408C6004608B6004708B700DE
:100A8800B801B9013608BE07370803110318013E3B
:100A9800031DBF07380803110318013E031DC007D3
:100AA800390803110318013E031DC1072F08F4007C
:100AB80034088A157C218A117508C7007408C60095
:100AC8004608B6004708B700B801B9013608C2079A
:100AD800370803110318013E031DC3073808031123
:100AE8000318013E031DC407390803110318013E0A
:100AF800031DC5073008F40033088A157C218A11C4
:100B08007508C7007408C6004608B6004708B7004D
:100B1800B801B9013608C207370803110318013EA6
:100B2800031DC307380803110318013E031DC4073A
:100B3800390803110318013E031DC5073008F400E6
:100B480034088A157C218A117508C7007408C60004
:100B58004608B6004708B700B801B90108300310C5
:100B6800B60DB70DB80DB90DFF3E031DB32D3608F0
:100B7800C207370803110318013E031DC3073808CD
:100B880003110318013E031DC40739080311031894
:100B9800013E031DC5074108B600B701B801B901F8
:100BA8003608C207370803110318013E031DC3079F
:100BB800380803110318013E031DC407390803113F
:100BC8000318013E031DC5070830B6000310BE0D0B
:100BD800BF0DC00DC10DB60BEA2D3D083C07B60090
:100BE800B701B70D3608823EC60037080318013E24
:100BF800FF3EC700C41B1B2E0130B6000310C20DF8
:100C0800C30DC40DC50DB60B022EC11B4214013015
:100C1800B6000310BE0DBF0DC00DC10DB60B0D2ED5
:100C2800FF30C6070318C70AFF30C707FE2DBC01EF
:100C3800C11F342EFF303E05B600FF303F05B70018
:100C4800FF304005B8007F304105B9003908380445
:100C58003704360403194218322E342EBC01BC0A5C
:100C68003C080319662E0130C20700300318013012
:100C7800C307003003180130C407003003180130DF
:100C8800C507451C662E4208B6004308B70044084D
:100C9800B8004508B9000130BA00390DB90CB80CD4
:100CA800B70CB60CBA0B512E3908C5003808C40069
:100CB8003708C3003608C2000130C6070318C70A40
:100CC8000030C7074708803AFF0080307F02031DC5
:100CD8006F2EFF304602031C7C2E7F3083120313D5
:100CE800C5008030C4000030C3000030C200A82E08
:100CF800831203134708803AFF0080307F02031DE8
:100D0800872E013046020318952E003083120313F4
:100D1800C5000030C4000030C3000030C200BB0171
:100D2800A82E831203134608BD00FF30C205FF300A
:100D3800C3057F30C4050030C5053D18C4173D08FC
:100D4800B6000310360CC5003B08FF007F08C50439
:100D58004508B1004408B0004308AF004208AE009F
:100D68000800A8002808031DA31FCA2E2009AA00EE
:100D78002109AB002209AC002309AD00AA0A031916
:100D8800AB0A0319AC0A0319AD0AD22E2308AD0029
:100D98002208AC002108AB002008AA00230822047E
:100DA80021042004031DE12E0030A3000030A2001E
:100DB8000030A1000030A00008009630A900FE30E5
:100DC8002D050319102F0130FF007F08A9070130F6
:100DD8000310AD0CAC0CAB0CAA0CFF3E031DEC2EA3
:100DE800E32E0130FF007F08A9070130AA07003071
:100DF80003180130AB07003003180130AC0700308E
:100E080003180130AD0701300310AD0CAC0CAB0C6E
:100E1800AA0CFF3E031D082FFF302D050319242FB0
:100E2800F52E02302902031C262F0130A9020130B9
:100E3800A4000310AA0DAB0DAC0DAD0DA40B1D2F16
:100E4800AC1F152F2918302FFF30AA05FF30AB052E
:100E58007F30AC05FF30AD050310A90C2908A400AC
:100E6800A501A601A70118300310A40DA50DA60D14
:100E7800A70DFF3E031D382F2408AA042508AB043C
:100E88002608AC042708AD042808031DA31F4D2F0E
:100E9800AD172D08A3002C08A2002B08A1002A08D2
:100EA800A000080000302E05B60000302F05B7005E
:100EB80080303005B8007F303105B9003908380472
:100EC80037043604031D702F0030B1000030B00025
:100ED8000030AF000030AE0000303205B600003000
:100EE8003305B70080303405B8007F303505B900C8
:100EF8003908380437043604031D8A2F0030B5003A
:100F08000030B4000030B3000030B200B11FB02F81
:100F18000030B6000030B7000030B8008030B900AB
:100F28002E08B6022F08031C2F0F9B2F9C2FB702E9
:100F38003008031C300FA12FA22FB8023108031C60
:100F4800310FA72FA82FB9023908B1003808B0000F
:100F58003708AF003608AE00B51FD62F0030B600F0
:100F68000030B7000030B8008030B9003208B6024F
:100F78003308031C330FC12FC22FB7023408031CD8
:100F8800340FC72FC82FB8023508031C350FCD2FD3
:100F9800CE2FB9023908B5003808B4003708B300B5
:100FA8003608B2008030B1068030B5063508310207
:100FB800031D080034083002031D080033082F02FF
:100FC800031D080032082E020800F400EC2F03135A
:100FD8006400831603178C18EB2F740883128D0096
:100FE8003F30FF007F0883168C050C1483120C0811
:020FF8000800EF
:1010A4000514851483129F171F140800640080011F
:1010B400840A04060319003404065928F40083162C
:1010C4000313981C6128740883129900080083167E
:1010D400871107118710071083128715071407114A
:1010E4000800F500F401F40A750803197D28750A4F
:1010F40003197D28F40174080800F601F60A74083F
:10110400750403198A28740A0319750A031DF60164
:101114007608080019308316990083129801831603
:101124009801981318151812831298171816981204
:1011340083160C128C161813831218138316981224
:10114400981608008711F601F51FAA288714AB2802
:1011540087100715071101300310F40DF50DFF3E3C
:10116400031DAE280130FF007F08F6071030760219
:10117400031CA6288715071007140800F50083161A
:1011840003178C18C128750883128D0074088C000D
:101194003F30FF007F0883168C0503108B1B03145C
:1011A4008B130C1555308D00AA308D008C140C1146
:1011B400031C08008B170800A4002403031DE62861
:1011C4000030A7003030E9280030A700B030A80074
:1011D400FF302005A2000F302105A30027082204B8
:1011E400A50028082304A6002608F5002508F40015
:1011F4008A15A42008002A308312A0002030A10000
:101204000A30A2000130A202220A03191A29210875
:1012140084000130A10783170008F400200884002B
:101224000130A007000874060319042900300800DF
:1012340001300800F60176082A3E8400831700086E
:10124400F40076088A15C0208A15823083120313AD
:10125400A100DD30A000A00B2D29A10B2D29000039
:101264000130FF007F08F6070A30760203180800F1
:101274001D2983120313A0002008F600F60DF60DB5
:101284001F087606E33976069F000330F600F60B56
:101294004929831203139F149F184E291E08A20084
:1012A40083161E088312A1002208F5002108F40009
:1012B4000800F401F501201C65292208F40703182D
:1012C400F50A2308F50701300310A20DA30DFF3E14
:1012D400031D662901300310A10CA00CFF3E031D61
:1012E4006D2920082104031D5D297508A1007408D7
:1012F400A0000800A600A201A3017408A000A10197
:101304002008A4002108A500261C8E292408A20771
:101314000318A30A2508A30701300310A40DA50D83
:10132400FF3E031D8F290310A60C2608031D8629E2
:101334002308F5002208F40008002A308A156020EA
:101344008A15C730F500A629F50BA529A929AA29CC
:10135400F6017608203E8400831700088A15602071
:101364008A15C730F500B629F50BB529B929BA296C
:101374000130FF007F08F6070A307602031CAB2910
:1013840023308A1560200800831206127508803AFB
:10139400FF0080307F02031DD12901307402031C39
:1013A4000800831203138615823083120313A100ED
:1013B400DD30A000A00BDC29A10BDC290000831286
:1013C40003138611823083120313A100DD30A000C1
:1013D400A00BEA29A10BEA290000FF30F407031847
:1013E400F50AFF30F507C82983120313061275089E
:1013F400803AFF0080307F02031D022A013074020C
:10140400031C08008312031386158230831203130E
:10141400A100DD30A000A00B0D2AA10B0D2A0000B5
:10142400831203138611823083120313A100DD306B
:10143400A000A00B1B2AA10B1B2A0000FF30F407FD
:101444000318F50AFF30F507F92953088312CF0072
:10145400831652088312CE00831651088312CD00DE
:10146400831650088312CC004030CB00A030CA0051
:101474000030C9000030C8008A159B248A154B0827
:10148400B5004A08B4004908B3004808B200453022
:10149400B1007F30B000F030AF000030AE008A11F0
:1014A400EE238A153108E5003008E4002F08E30034
:1014B4002E08E2008A15542363088316D100831290
:1014C40062088316D00008004030B100A030B0009C
:1014D4000030AF000030AE004430CB007F30CA0093
:1014E400C030C9000030C8006208A0006308A10031
:1014F400A201A30100308A11B5268A152308CF0062
:101504002208CE002108CD002008CC008A159B2497
:101514008A154B08B5004A08B4004908B3004808C6
:10152400B2008A11EE233108E9003008E8002F08E0
:10153400E7002E08E6006908E5006808E40067088B
:10154400E3006608E2000800DC2A0310380DB60048
:10155400390DB70003103C0DBA003D0DBB00080067
:1015640038083007B60039080318390A3107B700BC
:101574003C083007BA003D0803183D0A3107BB0098
:1015840008005030F4001030F50038087402B6003A
:101594003908031C390A7502B7005030F4001030C2
:1015A400F5003C087402BA003D08031C3D0A7502AC
:1015B400BB00080083164C08F400F5017508003AD6
:1015C4000319E52AF02A7408013A0319A72A033AF1
:1015D4000319B22A013A0319C32AF02A08008B1C02
:1015E400FC2A8B10013083160313AC070318AD0AD1
:1015F4000030AD070B1D162B0B110130F707031834
:10160400F80A0030F8077808803AFF0087307F0234
:10161400031D0E2BA1307702031C162BF701F801D2
:10162400013083160313C700831203138C1E492B46
:10163400981C1E2B181218161A08F9004030790647
:10164400031D282B8316C501C50A472B2A307906AA
:101654000319302B23307906031D3B2B2A307906DE
:101664000319372B8316C601C60A8312EC01ED0158
:10167400472B6C082A3E84007908831780000130C8
:10168400EC070318ED0A0030ED0783128C1273087F
:10169400FF0072088A0071088400700E8300FE0E39
:1016A4007E0E09000310640D650DEB006B08031D2D
:1016B400642B0030E5000030E4000030E30000302B
:1016C400E20008006208E6006308E7006408E80036
:1016D4006508E9001F300310E90CE80CE70CE60C80
:1016E400FF3E031D6D2B6608EA00E417FF30E20598
:1016F400FF30E305FF30E4050030E5059630EB02EA
:10170400EB1F992B6B08803A973E031C5B2B01302F
:101714000310E50CE40CE30CE20CFF3E031D8A2BE2
:101724000130FF007F08EB070319AC2B892B203015
:101734006B0203185B2B6B080319AC2B0130E6001A
:101744000310E20DE30DE40DE50DE60BA22B0130D1
:10175400EB029D2B6A0803190800E209E309E40976
:10176400E509E20A0319E30A0319E40A0319E50A7D
:1017740008004F088A1573208A15003A031DF92BB7
:101784004E088A1573208A15003A031DF92B4D085B
:101794008A1573208A15003A031DF92B4C088A1503
:1017A40073208A15003A031DF92B4B088A15732000
:1017B4008A15003A031DF92B4A088A1573208A15E5
:1017C400003A031DF92B4308F5004208F4008A157A
:1017D4007F208A15003A031DF92B4108F5004008C3
:1017E400F4008A157F208A15003A0319002C0A3068
:1017F400F4000030F5008A15F6210800831206165D
:10180400063083120313A4001330A300AD30A200EA
:10181400A20B0A2CA30B0A2CA40B0A2C0000831283
:1018240003130612063083120313A4001330A3001B
:10183400AD30A200A20B1C2CA30B1C2CA40B1C2C43
:101844000000080025308A1560208A15C730F5008D
:101854002B2CF50B2A2C2E2C2F2C831603133D082E
:101864008A1560208A15C730F500382CF50B372C03
:101874003B2C3C2C831603133C088A1560208A15E4
:10188400C730F500452CF50B442C482C492C831605
:1018940003133B088A1560208A15C730F500522CC3
:1018A400F50B512C552C562C831603133A088A1524
:1018B40060208A15C730F5005F2CF50B5E2C622C76
:1018C400632C831603132B088A1560208A15C730EE
:1018D400F5006C2CF50B6B2C6F2C702C83160313FA
:1018E4002A088A1560208A15C730F500792CF50B73
:1018F400782C7C2C7D2C8316031329088A156020F0
:101904008A15C730F500862CF50B852C892C8A2C7A
:101914008316031328088A1560208A15C730F5003A
:10192400932CF50B922C962C972C24308A1560203E
:1019340008004F088039D9004F08D0005007E00054
:10194400CE1B601460080319B52C600A031DB22C69
:101954000030CF000030CE000030CD000030CC008D
:10196400CE17CF01BD2C0030CF000030CE000030A8
:10197400CD000030CC004B088039FF007F08D90629
:101984004B08D0005007E100CA1B61146108031919
:10199400D92C610A031DD62C0030CB000030CA00BC
:1019A4000030C9000030C800CA17CB01E12C003058
:1019B400CB000030CA000030C9000030C8004B081A
:1019C4004A0449044804031D002D0030CF000030B0
:1019D400CE000030CD000030CC008030CE047F300B
:1019E400CF045908FF007F08CF044F08CB004E08EE
:1019F400CA004D08C9004C08C80008006008031D4F
:101A04000C2D0030CB000030CA000030C90000307B
:101A1400C80008006008D000D1015108D300610853
:101A24005002D200031CD30352087F3EDA0053084D
:101A34000318013E003EDB004F08D8004E08D700D3
:101A44004D08D6004C08D5000030CF000030CE0041
:101A54000030CD000030CC000030DF000030DE006C
:101A64000030DD000030DC00E1011A3061020318AF
:101A74007F2D610803195B2D0130D0000310D50DB3
:101A8400D60DD70DD80DD00B402D0130D00003104A
:101A9400CC0DCD0DCE0DCF0DD00B492DDF1B4C142D
:101AA4000130D0000310DC0DDD0DDE0DDF0DD00B99
:101AB400542D4B085802031D692D4A085702031D73
:101AC400692D49085602031D692D48085502031C57
:101AD4007A2D5F174808D5024908031C490FD6021E
:101AE4004A08031C4A0FD7024B08031C4B0FD802A9
:101AF4000130FF007F08E107372D580857045604CA
:101B04005504031D5C14CE1BA22D0130D00003101C
:101B1400CC0DCD0DCE0DCF0DD00B892DDF1B4C146C
:101B24000130D0000310DC0DDD0DDE0DDF0DD00B18
:101B3400942DFF30DA070318DB0AFF30DB07852D0D
:101B4400E101DF1FBB2DFF305C05D000FF305D05D8
:101B5400D100FF305E05D2007F305F05D30053080B
:101B640052045104500403194C18B92DBB2DE10142
:101B7400E10A61080319ED2D0130CC070030031888
:101B84000130CD07003003180130CE0700300318B0
:101B94000130CF074F1CED2D4C08D0004D08D1006B
:101BA4004E08D2004F08D3000130D400530DD30C9B
:101BB400D20CD10CD00CD40BD82D5308CF00520822
:101BC400CE005108CD005008CC000130DA070318CC
:101BD400DB0A0030DB075B08803AFF0080307F02BD
:101BE400031DF62DFF305A02031C062EFF3083120C
:101BF4000313DA000030DB000030CF000030CE00E9
:101C04000030CD000030CC00831203135B08803A0F
:101C1400FF0080307F02031D112E01305A02031889
:101C2400202E83120313DA01DB010030CF000030D1
:101C3400CE000030CD000030CC00D9018312031354
:101C44005A08E000601C282ECE172C2E7F30FF008F
:101C54007F08CE056008D0000310500CCF00F32C91
:101C640083160313DC015C08203E84005C088A119F
:101C7400E9278A1583178000823083160313D50061
:101C8400DD30D400D40B442ED50B442E000001309B
:101C9400FF007F0883160313DC070A305C02031C71
:101CA400352E83120317200883160313CF008312E3
:101CB4000317270883160313CC008312031728087D
:101CC40083160313CB008312031729088316031307
:101CD400CA0083120317210883160313CE0083124C
:101CE4000317220883160313CD0083120317240855
:101CF40083160313D400D501831203172308831614
:101D04000313D600D7015608D700D6015408560449
:101D1400C20055085704C30083120317260883160C
:101D24000313D400D5018312031725088316031364
:101D3400D600D7015608D700D60154085604C0006F
:101D440055085704C10041308312CB002030CA002B
:101D54000030C9000030C80083164E08D400D501F5
:101D6400D601D70157088312A3008316560883129D
:101D7400A200831655088312A10083165408831207
:101D8400A00000308A11B5268A152308CF00220846
:101D9400CE002108CD002008CC008A159B248A158A
:101DA4004B088316A70083124A088316A6008312E1
:101DB40049088316A500831248088316A4004130FD
:101DC4008312CB002030CA000030C9000030C800A4
:101DD40083164D08D400D501D601D70157088312C4
:101DE400A300831656088312A20083165508831293
:101DF400A100831654088312A00000308A11B5266E
:101E04008A152308CF002208CE002108CD0020081F
:101E1400CC008A159B248A154B088316A3008312D1
:101E24004A088316A200831249088316A10083126C
:101E340048088316A0004F08053EC9004C03031D43
:101E4400282F0310400DBE00410D3F2F02304C06D9
:101E5400031D342F40084207BE0041080318410AFD
:101E640043073F2F5030D4001030D50040085402AF
:101E7400BE004108031C410A5502BF0044308312CE
:101E8400CB007A30CA000030C9000030C800831685
:101E940042088312A000831643088312A100A20102
:101EA400A30100308A11B5268A152308CF00220821
:101EB400CE002108CD002008CC008A159B248A1569
:101EC4004B088316DB0083124A088316DA00831258
:101ED40049088316D900831248088316D8005B0882
:101EE400D3005A08D2005908D1005808D0008A15E6
:101EF40027228A155108B1005008B00044308312DB
:101F0400CB007A30CA000030C9000030C800831604
:101F140040088312A000831641088312A100A20185
:101F2400A30100308A11B5268A152308CF002208A0
:101F3400CE002108CD002008CC008A159B248A15E8
:101F44004B088316DB0083124A088316DA008312D7
:101F540049088316D900831248088316D8005B0801
:101F6400D3005A08D2005908D1005808D0008A1565
:101F740027228A155108B5005008B4004430831252
:101F8400CB007A30CA000030C9000030C800831684
:101F94003E088312A00083163F088312A100A20109
:101FA400A30100308A11B5268A152308CF00220820
:101FB400CE002108CD002008CC008A159B248A1568
:101FC4004B088316DB0083124A088316DA00831257
:101FD40049088316D900831248088316D8005B0881
:101FE400D3005A08D2005908D1005808D0008A15E5
:0C1FF40027225108B3005008B20008007A
:08400000FF3FFF3FFF3FFF3FC0
:02400E00A23FCF
:104200006400160035000300210004004C00020089
:1042100007000400FF00FF00FF00FF00FF00FF0099
:00000001FF
