:040000008A110D282C
:10000800FE00030EF0000408F1000A08F2008A1549
:100018004F2F8A110F2883174030FD000D30FE0046
:10002800AE30FF00203084008A1511258A11831311
:10003800E830FD000D30FE009030FF00CA3084002B
:100048008A1511258A11A0308400CA308A15F52432
:10005800F801F901FA0183018A11902C47088039C7
:10006800D1004708CC004C07D300C61B53145308D3
:1000780003194B28530A031D49280030C7000030D4
:10008800C6000030C5000030C400C6175328003031
:10009800C7000030C6000030C5000030C4004B085F
:1000A8008039FF007F08D1064B08CC004C07D200EE
:1000B800CA1B5214520803196E28520A031D6C28D1
:1000C8000030CB000030CA000030C9000030C80042
:1000D800CA1776280030CB000030CA000030C900AB
:1000E8000030C8005208031D5308031D842800303F
:1000F800C7000030C6000030C5000030C40008004A
:100108004408F3004A088A15CE258A117408DD00D0
:100118007308DC005C08CC00CD01CE01CF014F088C
:10012800D7004E08D6004D08D5004C08D4005D080D
:10013800CC00CD01CE01CF014F08DB004E08DA001C
:100148004D08D9004C08D8004508F30049088A151D
:10015800CE258A117408DD007308DC005C08CC0029
:10016800CD01CE01CF014C08D4074D080311031867
:10017800013E031DD5074E0803110318013E031D58
:10018800D6074F0803110318013E031DD7075D0862
:10019800CC00CD01CE01CF014C08D8074D08031182
:1001A8000318013E031DD9074E0803110318013E29
:1001B800031DDA074F0803110318013E031DDB076F
:1001C8004608F30048088A15CE258A117408DD0010
:1001D8007308DC005C08CC00CD01CE01CF014C08CF
:1001E800D4074D0803110318013E031DD5074E0817
:1001F80003110318013E031DD6074F080311031806
:10020800013E031DD7075D08CC00CD01CE01CF010B
:100218004C08D8074D0803110318013E031DD907E0
:100228004E0803110318013E031DDA074F08031196
:100238000318013E031DDB070830CC000310D40D62
:10024800D50DD60DD70DCC0B22294508F30048084B
:100258008A15CE258A117408DD007308DC005C0855
:10026800CC005D08CD00CE01CF014C08D4074D0865
:1002780003110318013E031DD5074E080311031887
:10028800013E031DD6074F0803110318013E031D45
:10029800D7074408F30049088A15CE258A1174083F
:1002A800DD007308DC005C08CC005D08CD00CE01E1
:1002B800CF014C08D4074D0803110318013E031D54
:1002C800D5074E0803110318013E031DD6074F0832
:1002D80003110318013E031DD7070830CC00031093
:1002E800D40DD50DD60DD70DCC0B73294408F300CA
:1002F80048088A15CE258A117408DD007308DC00C9
:100308005C08CC005D08CD00CE01CF014C08D407B5
:100318004D0803110318013E031DD5074E080311AC
:100328000318013E031DD6074F0803110318013EA9
:10033800031DD7074508F3004A088A15CE258A11F8
:100348007408DD007308DC005C08CC005D08CD0093
:10035800CE01CF014C08D8074D0803110318013E00
:10036800031DD9074E0803110318013E031DDA07C0
:100378004F0803110318013E031DDB074608F3006D
:1003880049088A15CE258A117408DD007308DC0037
:100398005C08CC005D08CD00CE01CF014C08D80721
:1003A8004D0803110318013E031DD9074E08031118
:1003B8000318013E031DDA074F0803110318013E15
:1003C800031DDB074608F3004A088A15CE258A1163
:1003D8007408DD007308DC005C08CC005D08CD0003
:1003E800CE01CF0108300310CC0DCD0DCE0DCF0DB1
:1003F800FF3E031DF7294C08D8074D0803110318C1
:10040800013E031DD9074E0803110318013E031DC1
:10041800DA074F0803110318013E031DDB075708CD
:10042800CC00CD01CE01CF014C08D8074D080311EF
:100438000318013E031DD9074E0803110318013E96
:10044800031DDA074F0803110318013E031DDB07DC
:100458000830CC000310D40DD50DD60DD70DCC0B1C
:100468002E2A53085207CC00CD01CD0D4C08823EF0
:10047800DC004D080318013EFF3EDD00DA1B5F2A51
:100488000130CC000310D80DD90DDA0DDB0DCC0BE3
:10049800462AD71B58140130CC000310D40DD50DB3
:1004A800D60DD70DCC0B512AFF30DC070318DD0A17
:1004B800FF30DD07422AD201D71F782AFF305405C2
:1004C800CC00FF305505CD00FF305605CE007F30FB
:1004D8005705CF004F084E044D044C040319581813
:1004E800762A782AD201D20A52080319AA2A013098
:1004F800D807003003180130D9070030031801303D
:10050800DA07003003180130DB075B1CAA2A5808F9
:10051800CC005908CD005A08CE005B08CF00013046
:10052800D0004F0DCF0CCE0CCD0CCC0CD00B952A97
:100538004F08DB004E08DA004D08D9004C08D800F7
:100548000130DC070318DD0A0030DD075D08803A5A
:10055800FF0080307F02031DB32AFF305C02031CBA
:10056800C02A7F3083120313DB008030DA000030AA
:10057800D9000030D800EC2A831203135D08803AB2
:10058800FF0080307F02031DCB2A01305C02031874
:10059800D92A003083120313DB000030DA00003060
:1005A800D9000030D800D101EC2A831203135C086B
:1005B800D300FF30D805FF30D9057F30DA05003089
:1005C800DB055318DA175308CC0003104C0CDB007A
:1005D8005108FF007F08DB045B08C7005A08C60003
:1005E8005908C5005808C400080031088039BB0004
:1005F8003108B2003207C200B01B42144208031986
:10060800132B420A031D102B0030B1000030B0003C
:100618000030AF000030AE00B017B1011B2B003026
:10062800B1000030B0000030AF000030AE002D083F
:100638008039FF007F08BB062D08B2003207C300CF
:10064800AC1B431443080319372B430A031D342BEF
:100658000030AD000030AC000030AB000030AA0024
:10066800AC17AD013F2B0030AD000030AC000030BE
:10067800AB000030AA002D082C042B042A04031D0B
:100688005E2B0030B1000030B0000030AF00003009
:10069800AE008030B0047F30B1043B08FF007F0813
:1006A800B1043108AD003008AC002F08AB002E08AB
:1006B800AA0008004208031D6A2B0030AD00003074
:1006C800AC000030AB000030AA0008004208B200BD
:1006D800B3013308B50043083202B400031CB50364
:1006E80034087F3EBC0035080318013E003EBD00BB
:1006F8003108BA003008B9002F08B8002E08B70032
:100708000030B1000030B0000030AF000030AE0063
:100718000030C1000030C0000030BF000030BE0013
:10072800C3011A3043020318DD2B43080319B92B00
:100738000130B2000310B70DB80DB90DBA0DB20BE8
:100748009E2B0130B2000310AE0DAF0DB00DB10DF0
:10075800B20BA72BC11B2E140130B2000310BE0D23
:10076800BF0DC00DC10DB20BB22B2D083A02031DEF
:10077800C72B2C083902031DC72B2B083802031D71
:10078800C72B2A083702031CD82B41172A08B7029F
:100798002B08031C2B0FB8022C08031C2C0FB902C2
:1007A8002D08031C2D0FBA020130FF007F08C30774
:1007B800952B3A08390438043704031D3E14B01B3E
:1007C800002C0130B2000310AE0DAF0DB00DB10D0D
:1007D800B20BE72BC11B2E140130B2000310BE0D63
:1007E800BF0DC00DC10DB20BF22BFF30BC070318B3
:1007F800BD0AFF30BD07E32BC301C11F192CFF3011
:100808003E05B200FF303F05B300FF304005B4009D
:100818007F304105B5003508340433043204031928
:100828002E18172C192CC301C30A430803194B2C83
:100838000130AE07003003180130AF07003003184D
:100848000130B007003003180130B107311C4B2CC0
:100858002E08B2002F08B3003008B4003108B500E4
:100868000130B600350DB50CB40CB30CB20CB60B98
:10087800362C3508B1003408B0003308AF00320810
:10088800AE000130BC070318BD0A0030BD073D08A3
:10089800803AFF0080307F02031D542CFF303C0259
:1008A800031C642CFF3083120313BC000030BD000E
:1008B8000030B1000030B0000030AF000030AE00B2
:1008C800831203133D08803AFF0080307F02031D26
:1008D8006F2C01303C0203187E2C83120313BC01D9
:1008E800BD010030B1000030B0000030AF00003072
:1008F800AE00BB01831203133C08C200421C862CC5
:10090800B0178A2C7F30FF007F08B0054208B2007C
:100918000310320CB100512B8A15FD248A118A1557
:10092800EF248A111930831603139200831292015F
:1009380012179212121292159210121483168C1416
:100948000B178B178A11EB278A118A1557258A11DD
:10095800023083120313EC008630EB009830EA0073
:10096800EA0BB42CEB0BB42CEC0BB42CBB2C8A1577
:1009780073258A1183160313E701AE30CC000830C3
:10098800CD000530CE000D30CF005730D0000430F8
:10099800D100831603133203031D712DB201AC017C
:1009A800AD0121088312EA00EB01831620088312A7
:1009B800EC00ED016C08ED00EC016A086C0483168C
:1009C800D20083126B086D048316D30023088312A8
:1009D800EA00EB01831622088312EC00ED016C0893
:1009E800ED00EC016A086C048316D40083126B08CE
:1009F8006D048316D50025088312EA00EB018316DF
:100A080024088312EC00ED016C08ED00EC016A0883
:100A18006C048316D00083126B086D048316D10012
:100A280027088312EA00EB01831626088312EC00DC
:100A3800ED016C08ED00EC016A086C048316D60021
:100A480083126B086D048316D70053088312E900DC
:100A5800831652088312E8008A1519268A11690834
:100A68008316CD00831268088316CC0055088312BC
:100A7800E900831654088312E8008A1519268A119A
:100A880069088316CF00831268088316CE00602D8C
:100A98008A15A3268A11712D8A15F9268A11712DB6
:100AA80083163308031D4C2D8A151D258A118316BC
:100AB8000313B301B30A4C2D3A088312EA00EB0181
:100AC8006B08003A0319692D542D6A08013A031975
:100AD8004C2D033A0319502D542DF9018312031399
:100AE800861A8619AA2D8316E801E80AEA01EB019D
:100AF800213083120313EB007630EA00EA0B822DD3
:100B0800EB0B822D83120313861E8C2D861D8F2DD1
:100B18008316E801A12D01308316EA070318EB0AB2
:100B28000030EB076B08803AFF0080307F02031D1E
:100B38009F2D03306A02031C7C2D8316031368085B
:100B48000319DF2D0130FA007914DF2D861E861D6A
:100B5800DF2D8316E901E90AEC01ED01213083124A
:100B68000313EB007630EA00EA0BB82DEB0BB82D37
:100B780083120313861AC22D8619C52D8316E9011F
:100B8800D72D01308316EC070318ED0A0030ED0766
:100B98006D08803AFF0080307F02031DD52D033099
:100BA8006C02031CB22D8316031369080319DF2D89
:100BB8000130FA0079157A080319CD2CFA01791C4D
:100BC800EF2D8316BA01BA0A8A151D258A118A15CE
:100BD800A3268A11CD2C791DCD2C02308316BA009C
:100BE8008A151D258A118A15F9268A114130831222
:100BF8000313EB00EE30EA00EA0B002EEB0B002E9D
:100C0800CD2CA4002408031DF61F1A2E7309A60074
:100C18007409A7007509A8007609A900A60A03198E
:100C2800A70A0319A80A0319A90A222E7608A900F7
:100C38007508A8007408A7007308A600760875044C
:100C480074047304031D312E0030F6000030F500E3
:100C58000030F4000030F30008009630A500FE30A4
:100C680029050319602E0130FF007F08A507013010
:100C78000310A90CA80CA70CA60CFF3E031D3C2EC4
:100C8800332E0130FF007F08A5070130A60700308A
:100C980003180130A707003003180130A8070030F7
:100CA80003180130A90701300310A90CA80CA70CE0
:100CB800A60CFF3E031D582EFF3029050319742E7C
:100CC800452E02302502031C762E0130A502013084
:100CD800A0000310A60DA70DA80DA90DA00B6D2E41
:100CE800A81F652E2518802EFF30A605FF30A70502
:100CF8007F30A805FF30A9050310A50C2508A00022
:100D0800A101A201A30118300310A00DA10DA20D8D
:100D1800A30DFF3E031D882E2008A6042108A70462
:100D28002208A8042308A9042408031DF61F9D2EE1
:100D3800A9172908F6002808F5002708F40026084E
:100D4800F3000800831286130430F500F50BAA2E71
:100D5800AD2E0330831203138500061706130730E0
:100D6800F6007D30F500F50BB72EF60BB72E831283
:100D78000313061706138230F600DD30F500F50B75
:100D8800C32EF60BC32EC82E8312031306170613A1
:100D98000730F6007D30F500F50BD02EF60BD02E7F
:100DA8000230831203138500061706133430F60049
:100DB800F130F500F50BDE2EF60BDE2EE32E283093
:100DC8008A153F258A113430F600F130F500F50B0D
:100DD800EB2EF60BEB2EF02E08308A153F258A11E4
:100DE8003430F600F130F500F50BF82EF60BF82E3E
:100DF800FD2E0C308A153F258A113430F600F1306B
:100E0800F500F50B052FF60B052F0A2F06308A156E
:100E18003F258A113430F600F130F500F50B122F1A
:100E2800F60B122F172F08002708FF3EA9002808E5
:100E38000318013EFF3EAA0027082607F700770897
:100E480084008313800124082504031D382F2908F2
:100E58002607F7007708840030308000FF30A907A4
:100E68000318AA0AFF30AA072508803AFF00803035
:100E78007F02031D412F01302402031C7F2F8312A0
:100E88000313AA1B7F2F29082607F7007708840079
:100E98000A30F3000030F4002508F6002408F500B5
:100EA8008A1558268A117308303E83138000FF3054
:100EB800A9070318AA0AFF30AA070A30F30000306E
:100EC800F4002508F6002408F5008A15A7278A11DA
:100ED8007408A5007308A400382F29082607F7000E
:100EE80077088400303083138000FF30A907031887
:100EF800AA0AFF30AA0783120313AA1B0800712F3E
:100F08000310600D610DE7006708031D942F003082
:100F1800E1000030E0000030DF000030DE000800B3
:100F28005E08E2005F08E3006008E4006108E5008D
:100F38001F300310E50CE40CE30CE20CFF3E031D2C
:100F48009D2F6208E600E017FF30DE05FF30DF0561
:100F5800FF30E0050030E1059630E702E71FC92FB2
:100F68006708803A973E031C8B2F01300310E10C71
:100F7800E00CDF0CDE0CFF3E031DBA2F0130FF0032
:100F88007F08E7070319DC2FB92F20306702031801
:100F98008B2F67080319DC2F0130E2000310DE0DE8
:100FA800DF0DE00DE10DE20BD22F0130E702CD2F6E
:100FB800660803190800DE09DF09E009E109DE0A0D
:100FC8000319DF0A0319E00A0319E10A08000615E4
:100FD80086141930990018151812831298171816C4
:100FE800981283160C128C16181383121813831672
:060FF80098129816080093
:10100000FF1B0A2883137F1883170008840A03191B
:10101000FF0A080008308A000408840A82070034A6
:101020002034203420342034203420342034203420
:10103000003453344134463445344D34413458340B
:1010400000344B344D342F344834003441344B3465
:1010500048344934003453344934443400344D3432
:101060005434523400344434423457340034563407
:101070004834003456344C34003453345034003443
:101080005034533400345034553400346D345634B5
:081090000034543459340034DB
:1019DE008A11A6268A158A151D2508006400800125
:1019EE00840A0406031900340406F62C0830831604
:1019FE008E008615061686160510851005118511A2
:101A0E00061386130B108B170B1708007E088A001F
:101A1E007F0882000D258A158000840A04087D0641
:101A2E0003190034FF0A0319FE0A112D8312031342
:101A3E00861301308A153F258A150330F60097303C
:101A4E00F500F50B282DF60B282D2D2D0800F60090
:101A5E008312031386137603031D3A2D7508803EF9
:101A6E008A153F2508007508C03E8A153F250800D7
:101A7E00F4000D30F300F30B422D7408F300043024
:101A8E000310F30CFF3E031D472D7308831203133F
:101A9E00850006170613740885000617061308003E
:101AAE008A151D258A15F50101308A152E258A15F0
:101ABE000A30F5008030F6008A15F1258A15F501F9
:101ACE00F50A02308A152E258A151730F50080305A
:101ADE00F6008A15F12508008A151D258A15023093
:101AEE00F50001308A152E258A152430F500803038
:101AFE00F6008A15F1258A150330F50002308A1595
:101B0E002E258A151C30F5008030F6008A15F12539
:101B1E0008000034003464340034143400345F346C
:101B2E00003472340134F43401340134003400349E
:101B3E0000340934123420343134373437343A34E3
:101B4E000534003405340034963400340134003446
:101B5E000034E834033428340034643400348834D8
:101B6E001334883413340534003400340034003414
:101B7E000034323400340F340034283400342C3422
:101B8E0001342C3401340134003400340034A40008
:101B9E00A001A1017308F500F6017508A2007608F0
:101BAE00A300241CE02D2208A0070318A10A230875
:101BBE00A10701300310A20DA30DFF3E031DE12D61
:101BCE000310A40C2408031DD82D2108F4002008AE
:101BDE00F300080086177608FF00750884008A1542
:101BEE0000208A15003A03190D2E7608FF0075089D
:101BFE0084008A1500208A158A153F258A15013022
:101C0E00F5070318F60A0030F607F22D0730831297
:101C1E000313A1007C30A000A00B132EA10B132EDA
:101C2E00182E08006808F3006908F400F501F601A3
:101C3E0000308A1105268A157608B1007508B000A5
:101C4E007408AF007308AE004530AD007F30AC00B5
:101C5E00F030AB000030AA008A11F9228A152D0847
:101C6E00CB002C08CA002B08C9002A08C800453032
:101C7E00C7009C30C6004030C5000030C4008A1139
:101C8E0032208A154708E1004608E0004508DF00CB
:101C9E004408DE008A1184275F08E9005E08E80028
:101CAE000800A101F61F622EF509F609F50A0319BF
:101CBE00F60AA101A10AF41F692EF309F409F30A29
:101CCE000319F40A730874040319962EA001A00ACE
:101CDE00F41B7D2E01300310F30DF40DFF3E031D9A
:101CEE00722E0130FF007F08A0076F2E7408760257
:101CFE00031D832E73087502031C8B2E7308F502C9
:101D0E007408031CF603F60201300310F40CF30CF6
:101D1E00FF3E031D8C2E0130A002031D7D2E2108D7
:101D2E0003199E2EF509F609F50A0319F60A760827
:101D3E00F4007508F300080083160313510883128C
:101D4E00A500831650088312A4002B30A600043081
:101D5E00A7000030A8008A1118278A15F501013056
:101D6E008A152E258A152B30F5000030F6008A15BF
:101D7E00F1258A150530F50001308A152E258A15B4
:101D8E003430F5008030F6008A15F1258A15831659
:101D9E00031357088312A500831656088312A40056
:101DAE002B30A6000430A7000030A8008A11182797
:101DBE008A15F50102308A152E258A152B30F5006D
:101DCE000030F6008A15F1258A150530F50002302F
:101DDE008A152E258A152E30F5008030F6008A15CC
:101DEE00F1250800831603134D088312A5008316F0
:101DFE004C088312A4002B30A6000430A70000303C
:101E0E00A8008A1118278A15F50101308A152E258A
:101E1E008A152B30F5000030F6008A15F1258A154B
:101E2E000530F50001308A152E258A152B30F50068
:101E3E008030F6008A15F1258A15831603134F0894
:101E4E008312A50083164E088312A4002B30A60021
:101E5E000430A7000030A8008A1118278A15F50152
:101E6E0002308A152E258A152B30F5000030F6002B
:101E7E008A15F1258A150530F50002308A152E25B2
:101E8E008A152830F5008030F6008A15F1250800F5
:101E9E008B13831603138C1C6A2F83128C1C6A2FD0
:101EAE008C10033083162F02E93003192E02031C07
:101EBE00642FB701B70AB8016A2F0130AE070318B5
:101ECE00AF0A0030AF0783168C1E9D2F83128C1E17
:101EDE009D2F981C742F181218161A08F80025300A
:101EEE007806031D7D2F8316AC01AD0124307806D4
:101EFE00031D862F01308316B200AC01AD012530D3
:101F0E00780603199B2F2430780603199B2F83160E
:101F1E002C08A03E84007808831380000130AC07A3
:101F2E000318AD0A0030AD0783128C128B1772089E
:101F3E008A0071088400700E8300FE0E7E0E09006A
:101F4E00A101F41FB12FF309F409F30A0319F40ADE
:101F5E00A101A10AF61FBC2FF509F609F50A03190E
:101F6E00F60A0130FF007F08A106A201A301730843
:101F7E0074040319F32FA001A00AF41BD22F013011
:101F8E000310F30DF40DFF3E031DC72F0130FF00AC
:101F9E007F08A007C42F01300310A20DA30DFF3E32
:101FAE00031DD32F74087602031DDF2F73087502ED
:101FBE00031CE82F7308F5027408031CF603F602DF
:101FCE00221401300310F40CF30CFF3E031DE92F15
:101FDE000130A002031DD22F21080319FB2FA209E5
:101FEE00A309A20A0319A30A2308F4002208F30086
:021FFE000800D9
:08400000FF3FFF3FFF3FFF3FC0
:02400E00701F21
:00000001FF
