:040000008A110D282C
:10000800FE00030EF0000408F1000A08F2008A1549
:10001800982B8A110F288313E030FD000B30FE0067
:100028005830FF00A03084008A152D228A118A11C9
:10003800FD278A11E900E0308400EC308A11F525AB
:100048008A115630840069308A11F5258A11F80121
:10005800F901FA0183018A1131288A1518228A11B7
:100068008A15E6218A111930831603139200831228
:10007800031392011217921212129215921012146F
:10008800831603138C140B178B178A157C228A117D
:100098008A1596228A11063083120313CE00133074
:1000A800CD00AD30CC00CC0B5728CD0B5728CE0B4C
:1000B800572800008A15CF228A1183120313690872
:1000C80003196728682837296608031D6C286D28D6
:1000D80086284030990083160313981C74287528C5
:1000E8006F28C73083120313CC007A28CC0B7928E9
:1000F8007D28000083120313E601E60AE4018C1050
:10010800121596286603031D8A288B2896286508E9
:10011800031D8F2890289628640803199428952889
:100128009628E6015A03031D9A289B286128DA01BC
:10013800E90112118C101812E501D801D9018316B2
:100148000313600883120313CC00CD014C088316F7
:100158000313CE00831203134D0883160313CF0035
:10016800610883120313CC00CD014C0883160313D6
:10017800D000831203134D0883160313D1006208BD
:1001880083120313CC00CD014C0883160313D2004D
:10019800831203134D0883160313D30064088312D4
:1001A8000313CC00CD0183160313630883120313D2
:1001B800CE00CF014E08CF00CE014C084E04831666
:1001C8000313D400831203134D084F04831603133B
:1001D800D500660883120313CC00CD0183160313E0
:1001E800650883120313CE00CF014E08CF00CE015D
:1001F8004C084E0483160313D600831203134D08CC
:100208004F0483160313D700670883120313CC0027
:10021800CD014C0883160313D800831203134D082D
:1002280083160313D900680883120313CC00CD0189
:100238004C0883160313DA00831203134D08831640
:100248000313DB00690883120313CC00CD014C08AB
:1002580083160313DC00831203134D08831603135C
:10026800DD0061286128E201061A3B293C29402962
:100278000130E300E214C029861A43294429802961
:10028800861D472948298029D001D00AD201D301E7
:10029800213083120313CD007630CC00CC0B5229C9
:1002A800CD0B522983120313861A5B295C29602916
:1002B80086195F2960296229D00175290130D20782
:1002C8000318D30A0030D3075308803AFF00803060
:1002D8007F02031D712903305202031C74297529FA
:1002E8004C2983120313500803197B297C29C02940
:1002F8000130E3006215C029861E83298429C0299C
:10030800861987298829C029D101D10AD401D501A4
:10031800213083120313CD007630CC00CC0B922908
:10032800CD0B922983120313861E9B299C29A02991
:10033800861D9F29A029A229D101B5290130D407FA
:100348000318D50A0030D5075508803AFF008030D9
:100358007F02031DB12903305402031CB429B529B7
:100368008C298312031351080319BB29BC29C029FE
:100378000130E3006214C02963080319C429C529A0
:100388006128E301E21CC929CA29B52ADF0109301D
:100398006802031CD029D129D329E801D7290130C3
:1003A800FF007F08E8078A1507228A11402ADD30F6
:1003B800F5008630F6008A11C7258A116A2ADE01FF
:1003C800DE0A0230F50001308A153A228A117E30A1
:1003D800F5008730F6008A11C7258A11F501F50A5C
:1003E80002308A153A228A115B30F5008730F60010
:1003F8008A11C7258A116A2A1630F5008730F60057
:100408008A11C7258A116A2A7930F5008730F600E3
:100418008A11C7258A116A2A8830F5008730F600C4
:100428008A11C7258A116A2A3630F5008730F60006
:100438008A11C7258A116A2A2E30F5008730F600FE
:100448008A11C7258A116A2A0630F5008730F60016
:100458008A11C7258A116A2A5430F5008730F600B8
:100468008A11C7258A116A2AA730F5008630F60056
:100478008A11C7258A116A2A831203136808CC00D7
:10048800CD014D08003A03194A2A6A2A4C08003A55
:100498000319DB29013A0319E329033A0319002A4E
:1004A800013A0319082A073A0319102A013A0319CD
:1004B800182A033A0319202A013A0319282A0F3A5D
:1004C8000319302A013A0319382A6A2A0A30831292
:1004D800031368020318712A722AA52A02306802D7
:1004E800031C772A782AA52AF50102308A153A22B0
:1004F8008A11831203136808CC004C07CA3E840093
:1005080083130008A300840A0008A4008A11512557
:100518008A11A530F5008630F6008A11C7258A11A0
:10052800831203136808CC004C07B63E840083137B
:100538000008F500840A00088403F6008A11C7251C
:100548008A11033083120313CE008A30CD00553050
:10055800CC00CC0BAD2ACD0BAD2ACE0BAD2A0000BA
:100568006128621CB82AB92AF82A5F03031DBD2A2C
:10057800BE2AD32ADF01033083120313CE008A3048
:10058800CD005530CC00CC0BC72ACD0BC72ACE0BDB
:10059800C72A000000308A15C7268A11ED2A680389
:1005A8000319D72AD82AED2A6808031DDC2ADD2A70
:1005B800E72A5E03031DE12AE22AED2A68088A1564
:1005C800C7268A11ED2A6808FF3E8A15C7268A11B0
:1005D800ED2A413083120313CD00EE30CC00CC0B52
:1005E800F32ACD0BF32A6128621DFB2AFC2A36293F
:1005F80068030319002B012B162B6808031D052B14
:10060800062B102B5E03031D0A2B0B2BED2A680803
:100618008A1590258A11ED2A6808FF3E8A159025CB
:100628008A11ED2ADF01DF0A0A306702031C1D2B3D
:100638001E2B212BE701E70A252B0130FF007F083D
:10064800E7078A1507228A118312031367088A1598
:1006580076248A11033083120313CE008A30CD002A
:100668005530CC00CC0B362BCD0B362BCE0B362B86
:100678000000ED2A8A110D2883120313BC01BC0A5D
:100688000130C1000030C200831203134108A200E8
:100698002207CC3E840083130008A300840A0008C4
:1006A800A4004108A5002507283E840023088000EF
:1006B800840A240880000130C1070318C20A0030E8
:1006C800C2074208803AFF0080307F02031D6E2B6C
:1006D80009304102031C712B722B482B2A308A15D2
:1006E800ED218A110D3083120313A300FB30A20001
:1006F800A20B7C2BA30B7C2B0000831603134E0844
:100708008A15ED218A110D3083120313A300FB30E3
:10071800A200A20B8D2BA30B8D2B000083160313B5
:1007280050088A15ED218A110D3083120313A30096
:10073800FB30A200A20B9E2BA30B9E2B000083165E
:10074800031352088A15ED218A110D308312031301
:10075800A300FB30A200A20BAF2BA30BAF2B000012
:10076800831603135508F5005408F4008A150A2364
:100778008A110D3083120313A300FB30A200A20BD1
:10078800C32BA30BC32B0000831603135708F500D4
:100798005608F4008A150A238A110D3083120313B0
:1007A800A300FB30A200A20BD72BA30BD72B000072
:1007B8008316031358088A15ED218A110D30831208
:1007C8000313A300FB30A200A20BE82BA30BE82B1A
:1007D8000000831603135A088A15ED218A110D307B
:1007E80083120313A300FB30A200A20BF92BA30B67
:1007F800F92B0000831603135C088A15ED218A1172
:100808000D3083120313A300FB30A200A20B0A2CA5
:10081800A30B0A2C0000013083120313BD00003023
:10082800BE00831203133D08A2002207CC3E8400B9
:1008380083138001840A80010130BD070318BE0AB2
:100848000030BE073E08803AFF0080307F02031D5B
:100858002F2C09303D02031C322C332C152C83120B
:100868000313BF01C001831203133F08E03E840055
:10087800831380010130BF070318C00A0030C00786
:100888004008803AFF0080307F02031D4D2C0A305B
:100898003F02031C502C512C372C83120313D60112
:1008A800D70123308A15ED218A110D3083120313E5
:1008B800A300FB30A200A20B5F2CA30B5F2C00004F
:1008C800831203138C10121518165A0803196D2C6D
:1008D8006E2C692C8C1012111812DA01831603136E
:1008E800600883120313A200A301220883160313CE
:1008F800CE0083120313230883160313CF00610865
:1009080083120313A200A301220883160313D00045
:1009180083120313230883160313D100620883127A
:100928000313A200A301220883160313D200831223
:100938000313230883160313D300640883120313D5
:10094800A200A30183160313630883120313A400F0
:10095800A5012408A500A401220824048316031372
:10096800D400831203132308250483160313D50028
:10097800660883120313A200A301831603136508F4
:1009880083120313A400A5012408A500A4012208CA
:10099800240483160313D6008312031323082504A3
:1009A80083160313D700670883120313A200A30159
:1009B800220883160313D80083120313230883160F
:1009C8000313D900680883120313A200A3012208A5
:1009D80083160313DA008312031323088316031301
:1009E800DB00690883120313A200A30122088316FF
:1009F8000313DC0083120313230883160313DD009B
:100A0800013083120313C3000030C40083120313A0
:100A18004308A2002207CC3E840083130008A300E9
:100A2800840A0008A4004308A5002507283E84007E
:100A38000008A600840A0008A70024082706031D4A
:100A4800272D2308260603192A2D2B2D2D2DBC0111
:100A5800402D0130C3070318C40A0030C4074408F6
:100A6800803AFF0080307F02031D3C2D093043028D
:100A7800031C3F2D402D0A2D831203133C03031D35
:100A8800462D472D4B2D8A11DF278A11502D013015
:100A9800E7028A15EC228A110800831203138617CD
:100AA800A7010430AB006C2D1030A8002730A90036
:100AB800822DE830A8000330A900822D6430A800F8
:100AC8000030A900822D0A30A8000030A900822D2C
:100AD8002B08A500A6012608003A0319742D822DBB
:100AE8002508013A0319672D033A0319622D013AC3
:100AF80003195D2D073A0319582D822D2908F40092
:100B08002808F3002408F6002308F5008A1199271D
:100B18008A11730883120313AA002708031D952D51
:100B2800962D9B2D2A0803199A2D9B2DA42D2A0852
:100B3800303E8A1564228A1183120313A701A70A7B
:100B48002A08A500A6012508F3002608F4002908AC
:100B5800F6002808F5008A152D238A1173088312D8
:100B68000313A3027408031CA403A4020130AB02FC
:100B78002B08031DC02DC12D6C2D2308303E8A156E
:100B880064228A110800831203138617DB2D760866
:100B9800FF00750884008A1100268A118A156422CC
:100BA8008A110130F5070318F60A0030F6077608AF
:100BB80083120313FF00750884008A1100268A1126
:100BC800003A031DE82DE92DCB2D073083120313BE
:100BD800A1007C30A000A00BEF2DA10BEF2DF42D70
:100BE800080064008001840A04060319003404061E
:020BF800F62DD8
:100C0000FF1B0A2E83137F1883170008840A031919
:100C1000FF0A08007F087F398A000408840A031944
:100C2000FF0A820000340034FA340034FA3400340D
:100C3000FA340034883413348834133405340034DF
:100C4000FA340034FA340034003400340034003410
:100C500001340034013400340134003401340034F0
:100C600001340034013400340134003401340034E0
:100C700000340034643414345F34763401344F3437
:100C800002340134073404346434163435342134E6
:100C900003344C34043402340734043464341634DA
:100CA0005D347A3401349A34023401340734043424
:100CB000643416345F34763401344F3402340134F2
:100CC00007340434643416343534663401349434CF
:100CD0000234013407340434643416343434843434
:100CE0000134983402340134073404346434173442
:100CF0005C3403340234E7340334033407340434FB
:100D000064341634493470340134203403340134EB
:100D100007340434643413344334FE3401347F34F0
:100D20000334013407340434643413345C34FE3443
:100D300001341B34033401340734043420342034A8
:100D400020342034203420342034203400344434FF
:100D50004F3457344E34483449344C344C340034D6
:100D6000433441344C342D3454344F344F344C34A8
:100D7000003455345234563441342D3443344134E4
:100D80004E3400345634493443342D3453344334D0
:100D900041344E340034503441344C342D344134D9
:100DA000553454344F3400342034563449344334A9
:100DB00054344F345234593400347C342D34533449
:100DC0004134563445342D347C34003420344A3494
:100DD000413443342D344D343434003420345334CE
:100DE000543445345234493441340034203453347B
:100DF00045344E3454345234413400342034203499
:100E0000483449344134433445340034563448344A
:100E10005F345434593450344534003453344534F9
:100E20004E34443449344E3447340034533450340F
:100E300044345F344C3449344D340034203420344D
:100E400055345234563441344E3400342034203436
:100E50004934533455345A34553400344C344934BD
:100E60004D345F344C344F34573400344D344934AE
:100E70004E345F344C344F3457340034533441349F
:100E8000463445344D3441345834003444344134CC
:100E9000543441342E342E340034533449344434E1
:100EA0005F34563432340034553450344834493485
:100EB0004C344C34003443345534533454344F346C
:100EC0004D3400342034203420344834313400345C
:100ED0005334413456344534443400344534523468
:100EE00052344F3452340034443441345434413455
:100EF000003443344934523443340034533441349D
:100F00005634453400344B344D342F344834003497
:100F100050345034523400344D345434523400344C
:100F20005034533400346D3456340034543459340E
:100F3000003483120313A101A2017308740403197E
:100F4000A22FA32FDA2FA001A00AB12F0130031086
:100F5000F30DF40DFF3E031DA72F0130FF007F08A6
:100F6000A007F41FB42FB52FA62F01300310A10D39
:100F7000A20DFF3E031DB62F74087602031DC22F7B
:100F800073087502031CC52FC62FCD2F7308F502F9
:100F90007408031CF603F602211401300310F40C4C
:100FA000F30CFF3E031DCE2F0130A002031DD92FED
:100FB000DA2FB52F2208F4002108F30008008A1563
:100FC00007228A110230F50001308A153A228A116F
:100FD0007430F5008730F6008A11C7258A11023077
:100FE000F50002308A153A228A116830F500873000
:0C0FF000F6008A11C7258A1108000134A0
:1013CC008A1503248A158A1507228A150800F3004A
:1013DC0083160313981CF329F429EE29730883123E
:1013EC00031399000800F700F50177088A153A22D3
:1013FC008A159E30F5008630F6008A11C7258A15AD
:10140C00080083120313861301308A1564228A158F
:10141C000330F6009730F500F50B122AF60B122A62
:10142C00172A08000830831603138E00861506163B
:10143C0086160510851005118511061386130B10E1
:10144C008B170B1708007E088A007F0882008A150C
:10145C0029228A158000840A04087D0603190034A9
:10146C00FF0A0319FE0A2D2AF600831203138613B2
:10147C007603031D422A432A492A7508803E8A15A1
:10148C0064228A154E2A7508C03E8A1564228A1574
:10149C000800F500F401751C542A552A592A7308C2
:1014AC00FF007F08F4070310F30D0310F50C75080B
:1014BC00031D612A622A512A74080800F4000D30B9
:1014CC00F300F30B672A7408F30004300310F30CD9
:1014DC00FF3E031D6C2A7308831203138500061745
:1014EC0006137408850006170613080083160313E9
:1014FC000615861419309900181518128312031347
:10150C00981718169812831603130C128C161813AE
:10151C0083120313181383160313981298160800DA
:10152C008A1507228A15F50101308A153A228A1587
:10153C003E30F5008730F6008A11C7258A15F50173
:10154C0002308A153A228A15B030F5008630F60042
:10155C008A11C7258A1508008A1507228A15F501F4
:10156C0001308A153A228A150E30F5008730F600C4
:10157C008A11C7258A150230F50002308A153A22E5
:10158C008A154630F5008730F6008A11C7258A1572
:10159C0008008A1507228A15F50101308A153A22AE
:1015AC008A15CB30F5008630F6008A11C7258A15CE
:1015BC00F501F50A02308A153A228A154D30F500EC
:1015CC008730F6008A11C7258A1508008A1507226C
:1015DC008A150230F50001308A153A228A157430CA
:1015EC00F5008730F6008A11C7258A150230F50000
:1015FC0002308A153A228A156E30F5008730F600D3
:10160C008A11C7258A150800750883120313A000D8
:10161C007408A10020088A15ED218A158230F70084
:10162C00DD30F600F60B182BF70B182B1D2B831245
:10163C00031321088A15ED218A158230F700DD305D
:10164C00F600F60B272BF70B272B2C2B08008312FD
:10165C000313A001A101731C342B352B3D2B7508F2
:10166C0083120313A0070318A10A7608A1070130FF
:10167C000310F50DF60DFF3E031D3E2B013003103C
:10168C00F40CF30CFF3E031D452B73087404031D6F
:10169C00502B512B312B831203132108F4002008FB
:1016AC00F3000800A6348634F6348634FE348634CF
:1016BC00B93486341E34873462348734EE3486343D
:1016CC0026348734E6348634C2348634D4348634B3
:1016DC00A6348634A6348634833487348C348734E9
:1016EC0090348734933487349334873496348734E6
:1016FC009334873493348734A634863400340034DE
:10170C0064340034143400345F34003472340134E3
:10171C00F43401340134003407340034043400341C
:10172C00003400348B13831603138C1C9E2B9F2BBD
:10173C00B92B831203138C1CA42BA52BB92B8C1047
:10174C0003305902E93003195802031CAE2BAF2B9E
:10175C00B32BE401E40AE501B92B0130D8070318D7
:10176C00D90A0030D907831603138C1EBE2BBF2B4E
:10177C00F92B831203138C1EC42BC52BF92B981C2D
:10178C00C82BC92BCB2B181218161A08FA002A30A2
:10179C007A06031DD22BD32BD52BD601D7012330A0
:1017AC007A06031DDA2BDB2BDF2B0130DA00D60196
:1017BC00D7012A307A060319E42BE52BF82B2330BA
:1017CC007A06031DEA2BEB2BEC2BF82B5608E03E8C
:1017DC0084007A08831380000130D6070318D70AD7
:1017EC000030D7078C128B1772088A00710884009E
:1017FC00700E8300FE0E7E0E0900831203138613F7
:10180C000430F500F50B082C0B2C0330831203135A
:10181C008500061706130730F6007D30F500F50B32
:10182C00152CF60B152C8312031306170613823096
:10183C00F600DD30F500F50B212CF60B212C262CB7
:10184C0083120313061706130730F6007D30F500DC
:10185C00F50B2E2CF60B2E2C023083120313850065
:10186C00061706133430F600F130F500F50B3C2C5E
:10187C00F60B3C2C412C28308A1564228A15343006
:10188C00F600F130F500F50B492CF60B492C4E2CDB
:10189C0008308A1564228A153430F600F130F500D0
:1018AC00F50B562CF60B562C5B2C0C308A1564223F
:1018BC008A153430F600F130F500F50B632CF60B7D
:1018CC00632C682C06308A1564228A153430F60095
:1018DC00F130F500F50B702CF60B702C752C080004
:1018EC0083120313A6008A1507228A150230F5000D
:1018FC0001308A153A228A157E30F5008730F600C1
:10190C008A11C7258A15F50102308A153A228A15E3
:10191C00831203132608A2002207A03E840083131F
:10192C000008F500840A00088403F6008A11C72514
:10193C008A150A30F3008312031367088A154F22A5
:10194C008A15303E83120313A20086300318013E21
:10195C00A3002208A7002308A8002808FF002708D6
:10196C0084008A1100268A15A200A301220883167E
:10197C000313CE0083120313230883160313CF0023
:10198C00013083120313A2000030A30022082707A2
:10199C00840023080318230A2807FF008A11002655
:1019AC008A15A400A501240883160313D000831202
:1019BC000313250883160313D1000230831203137B
:1019CC00A2000030A3002208270784002308031874
:1019DC00230A2807FF008A1100268A15A400A501F6
:1019EC00240883160313D2008312031325088316CD
:1019FC000313D300033083120313A2000030A3009F
:101A0C0022082707840023080318230A2807FF004D
:101A1C008A1100268A1583160313D400831203132C
:101A2C008A1100268A1583160313D50005308312FC
:101A3C000313A2000030A300220827078400230808
:101A4C000318230A2807FF008A1100268A1583161B
:101A5C000313D600831203138A1100268A158316EA
:101A6C000313D700073083120313A2000030A30026
:101A7C0022082707840023080318230A2807FF00DD
:101A8C008A1100268A15A400A501240883160313C5
:101A9C00D80083120313250883160313D9000830CA
:101AAC0083120313A2000030A3002208270784002E
:101ABC0023080318230A2807FF008A1100268A1519
:101ACC00A400A501240883160313DA008312031360
:101ADC00250883160313DB00093083120313A200BD
:101AEC000030A30022082707840023080318230AC8
:101AFC002807FF008A1100268A15A400A5012408D6
:101B0C0083160313DC0083120313250883160313B7
:101B1C00DD00080083120313CB00A12E4B08C50077
:101B2C004507123E840086300318013EFF008A11DF
:101B3C0000268A15C6008A1100268A15C7004B0894
:101B4C00C8004807CC3E840083130008C900840AEF
:101B5C000008CA0047084A02031DB62D4608490270
:101B6C00031CB92DBA2DD72D4B08C5004507123EC5
:101B7C00840086300318013EFF008A1100268A1566
:101B8C00C6008A1100268A15C7004B08C8004807F2
:101B9C00CC3E8400460883138000840A47088000EA
:101BAC00C62E4B08C5004507CC3E84000008C60075
:101BBC00840A0008C7004608013EC80047080318FD
:101BCC00013E003EC9004B08CA004A07CC3E8400C7
:101BDC0048088000840A4908800002308A15F921DF
:101BEC008A15F50102308A153A228A1583120313DD
:101BFC004B08C5004507CC3E840083130008A300A6
:101C0C00840A0008A4008A1151258A15A530F50014
:101C1C008630F6008A11C7258A15831203134B08E8
:101C2C00C5004507B83E840083130008F500840AFC
:101C3C0000088403F6008A11C7258A15C62E4B08A6
:101C4C00C5004507123E840086300318013EFF0094
:101C5C008A1100268A15C6008A1100268A15C7002B
:101C6C004B08C8004807CC3E840083130008C90009
:101C7C00840A0008CA0047084A02031D472E46087A
:101C8C004902031C4A2E4B2E4C2EBA2D4B08C50074
:101C9C004507CC3E84000008C600840A0008C70033
:101CAC0046080A3EC80047080318013E003EC9001A
:101CBC004B08CA004A07CC3E840048088000840ABE
:101CCC004908800002308A15F9218A15F501023085
:101CDC008A153A228A15831203134B08C50045074F
:101CEC00CC3E840083130008A300840A0008A400DF
:101CFC008A1151258A15A530F5008630F6008A1117
:101D0C00C7258A15831203134B08C5004507B83E37
:101D1C00840083130008F500840A00088403F6008D
:101D2C008A11C7258A15C62E8A15B2228A158A11E0
:101D3C0040238A15C62E4B08C500C6014608003A3A
:101D4C000319A92EC62E4508003A03199A2E013AFA
:101D5C000319942D033A0319942D013A0319942D68
:101D6C00073A0319252E013A0319252E033A0319B4
:101D7C00942D013A0319942D0F3A0319942DC62E64
:101D8C00080083120313CB00DA2F4B08C50045075C
:101D9C00CC3E840083130008C600840A0008C700E8
:101DAC004B08C8004807263E840086300318013EC5
:101DBC00FF008A1100268A15C9008A1100268A158F
:101DCC00CA0047084A02031DED2E46084902031CAF
:101DDC00F02EF12E0E2F4B08C5004507263E840031
:101DEC0086300318013EFF008A1100268A15C600B2
:101DFC008A1100268A15C7004B08C8004807CC3E3C
:101E0C008400460883138000840A47088000FF2F53
:101E1C004B08C5004507CC3E840083130008C60060
:101E2C00840A0008C7004608FF3EC800470803188C
:101E3C00013EFF3EC9004B08CA004A07CC3E840055
:101E4C0048088000840A4908800002308A15F9216C
:101E5C008A15F50102308A153A228A15831203136A
:101E6C004B08C5004507CC3E840083130008A30033
:101E7C00840A0008A4008A1151258A15A530F500A2
:101E8C008630F6008A11C7258A15831203134B0876
:101E9C00C5004507B83E840083130008F500840A8A
:101EAC0000088403F6008A11C7258A15FF2F4B08FA
:101EBC00C5004507CC3E840083130008C600840A85
:101ECC000008C7004B08C8004807263E840086302F
:101EDC000318013EFF008A1100268A15C9008A11D9
:101EEC0000268A15CA0047084A02031D7F2F4608A0
:101EFC004902031C822F832F842FF12E4B08C5001F
:101F0C004507CC3E840083130008C600840A0008F1
:101F1C00C7004608F63EC80047080318013EFF3EBE
:101F2C00C9004B08CA004A07CC3E84004808800010
:101F3C00840A4908800002308A15F9218A15F501B6
:101F4C0002308A153A228A15831203134B08C500F6
:101F5C004507CC3E840083130008A300840A0008C4
:101F6C00A4008A1151258A15A530F5008630F6009B
:101F7C008A11C7258A15831203134B08C500450720
:101F8C00B83E840083130008F500840A000884031B
:101F9C00F6008A11C7258A15FF2F8A15B2228A15D9
:101FAC008A1140238A15FF2F4B08C500C60146082D
:101FBC00003A0319E22FFF2F4508003A0319D32FDB
:101FCC00013A0319CB2E033A0319CB2E013A03190C
:101FDC00CB2E073A03195D2F013A03195D2F033AF3
:101FEC000319CB2E013A0319CB2E0F3A0319CB2E22
:041FFC00FF2F0800AB
:08400000FF3FFF3FFF3FFF3FC0
:02400E00701F21
:00000001FF
